{
  "contractName": "FlutterBirdSkins",
  "abi": [
    {
      "inputs": [],
      "stateMutability": "nonpayable",
      "type": "constructor"
    },
    {
      "anonymous": false,
      "inputs": [
        {
          "indexed": true,
          "internalType": "address",
          "name": "owner",
          "type": "address"
        },
        {
          "indexed": true,
          "internalType": "address",
          "name": "approved",
          "type": "address"
        },
        {
          "indexed": true,
          "internalType": "uint256",
          "name": "tokenId",
          "type": "uint256"
        }
      ],
      "name": "Approval",
      "type": "event"
    },
    {
      "anonymous": false,
      "inputs": [
        {
          "indexed": true,
          "internalType": "address",
          "name": "owner",
          "type": "address"
        },
        {
          "indexed": true,
          "internalType": "address",
          "name": "operator",
          "type": "address"
        },
        {
          "indexed": false,
          "internalType": "bool",
          "name": "approved",
          "type": "bool"
        }
      ],
      "name": "ApprovalForAll",
      "type": "event"
    },
    {
      "anonymous": false,
      "inputs": [
        {
          "indexed": true,
          "internalType": "uint256",
          "name": "tokenId",
          "type": "uint256"
        }
      ],
      "name": "SkinMinted",
      "type": "event"
    },
    {
      "anonymous": false,
      "inputs": [
        {
          "indexed": true,
          "internalType": "address",
          "name": "from",
          "type": "address"
        },
        {
          "indexed": true,
          "internalType": "address",
          "name": "to",
          "type": "address"
        },
        {
          "indexed": true,
          "internalType": "uint256",
          "name": "tokenId",
          "type": "uint256"
        }
      ],
      "name": "Transfer",
      "type": "event"
    },
    {
      "inputs": [
        {
          "internalType": "address",
          "name": "to",
          "type": "address"
        },
        {
          "internalType": "uint256",
          "name": "tokenId",
          "type": "uint256"
        }
      ],
      "name": "approve",
      "outputs": [],
      "stateMutability": "nonpayable",
      "type": "function"
    },
    {
      "inputs": [
        {
          "internalType": "address",
          "name": "owner",
          "type": "address"
        }
      ],
      "name": "balanceOf",
      "outputs": [
        {
          "internalType": "uint256",
          "name": "",
          "type": "uint256"
        }
      ],
      "stateMutability": "view",
      "type": "function",
      "constant": true
    },
    {
      "inputs": [
        {
          "internalType": "uint256",
          "name": "tokenId",
          "type": "uint256"
        }
      ],
      "name": "getApproved",
      "outputs": [
        {
          "internalType": "address",
          "name": "",
          "type": "address"
        }
      ],
      "stateMutability": "view",
      "type": "function",
      "constant": true
    },
    {
      "inputs": [
        {
          "internalType": "address",
          "name": "owner",
          "type": "address"
        },
        {
          "internalType": "address",
          "name": "operator",
          "type": "address"
        }
      ],
      "name": "isApprovedForAll",
      "outputs": [
        {
          "internalType": "bool",
          "name": "",
          "type": "bool"
        }
      ],
      "stateMutability": "view",
      "type": "function",
      "constant": true
    },
    {
      "inputs": [],
      "name": "name",
      "outputs": [
        {
          "internalType": "string",
          "name": "",
          "type": "string"
        }
      ],
      "stateMutability": "view",
      "type": "function",
      "constant": true
    },
    {
      "inputs": [],
      "name": "owner",
      "outputs": [
        {
          "internalType": "address",
          "name": "",
          "type": "address"
        }
      ],
      "stateMutability": "view",
      "type": "function",
      "constant": true
    },
    {
      "inputs": [
        {
          "internalType": "uint256",
          "name": "tokenId",
          "type": "uint256"
        }
      ],
      "name": "ownerOf",
      "outputs": [
        {
          "internalType": "address",
          "name": "",
          "type": "address"
        }
      ],
      "stateMutability": "view",
      "type": "function",
      "constant": true
    },
    {
      "inputs": [
        {
          "internalType": "address",
          "name": "from",
          "type": "address"
        },
        {
          "internalType": "address",
          "name": "to",
          "type": "address"
        },
        {
          "internalType": "uint256",
          "name": "tokenId",
          "type": "uint256"
        }
      ],
      "name": "safeTransferFrom",
      "outputs": [],
      "stateMutability": "nonpayable",
      "type": "function"
    },
    {
      "inputs": [
        {
          "internalType": "address",
          "name": "from",
          "type": "address"
        },
        {
          "internalType": "address",
          "name": "to",
          "type": "address"
        },
        {
          "internalType": "uint256",
          "name": "tokenId",
          "type": "uint256"
        },
        {
          "internalType": "bytes",
          "name": "data",
          "type": "bytes"
        }
      ],
      "name": "safeTransferFrom",
      "outputs": [],
      "stateMutability": "nonpayable",
      "type": "function"
    },
    {
      "inputs": [
        {
          "internalType": "address",
          "name": "operator",
          "type": "address"
        },
        {
          "internalType": "bool",
          "name": "approved",
          "type": "bool"
        }
      ],
      "name": "setApprovalForAll",
      "outputs": [],
      "stateMutability": "nonpayable",
      "type": "function"
    },
    {
      "inputs": [
        {
          "internalType": "bytes4",
          "name": "interfaceId",
          "type": "bytes4"
        }
      ],
      "name": "supportsInterface",
      "outputs": [
        {
          "internalType": "bool",
          "name": "",
          "type": "bool"
        }
      ],
      "stateMutability": "view",
      "type": "function",
      "constant": true
    },
    {
      "inputs": [],
      "name": "symbol",
      "outputs": [
        {
          "internalType": "string",
          "name": "",
          "type": "string"
        }
      ],
      "stateMutability": "view",
      "type": "function",
      "constant": true
    },
    {
      "inputs": [
        {
          "internalType": "uint256",
          "name": "index",
          "type": "uint256"
        }
      ],
      "name": "tokenByIndex",
      "outputs": [
        {
          "internalType": "uint256",
          "name": "",
          "type": "uint256"
        }
      ],
      "stateMutability": "view",
      "type": "function",
      "constant": true
    },
    {
      "inputs": [
        {
          "internalType": "address",
          "name": "owner",
          "type": "address"
        },
        {
          "internalType": "uint256",
          "name": "index",
          "type": "uint256"
        }
      ],
      "name": "tokenOfOwnerByIndex",
      "outputs": [
        {
          "internalType": "uint256",
          "name": "",
          "type": "uint256"
        }
      ],
      "stateMutability": "view",
      "type": "function",
      "constant": true
    },
    {
      "inputs": [],
      "name": "totalSupply",
      "outputs": [
        {
          "internalType": "uint256",
          "name": "",
          "type": "uint256"
        }
      ],
      "stateMutability": "view",
      "type": "function",
      "constant": true
    },
    {
      "inputs": [
        {
          "internalType": "address",
          "name": "from",
          "type": "address"
        },
        {
          "internalType": "address",
          "name": "to",
          "type": "address"
        },
        {
          "internalType": "uint256",
          "name": "tokenId",
          "type": "uint256"
        }
      ],
      "name": "transferFrom",
      "outputs": [],
      "stateMutability": "nonpayable",
      "type": "function"
    },
    {
      "inputs": [
        {
          "internalType": "uint256",
          "name": "newTokenId",
          "type": "uint256"
        }
      ],
      "name": "mintSkin",
      "outputs": [],
      "stateMutability": "payable",
      "type": "function",
      "payable": true
    },
    {
      "inputs": [
        {
          "internalType": "address",
          "name": "_owner",
          "type": "address"
        }
      ],
      "name": "getTokensForOwner",
      "outputs": [
        {
          "internalType": "uint256[]",
          "name": "",
          "type": "uint256[]"
        }
      ],
      "stateMutability": "view",
      "type": "function",
      "constant": true
    },
    {
      "inputs": [],
      "name": "getMintedTokenList",
      "outputs": [
        {
          "internalType": "bool[]",
          "name": "",
          "type": "bool[]"
        }
      ],
      "stateMutability": "view",
      "type": "function",
      "constant": true
    },
    {
      "inputs": [
        {
          "internalType": "uint256",
          "name": "tokenId",
          "type": "uint256"
        }
      ],
      "name": "tokenURI",
      "outputs": [
        {
          "internalType": "string",
          "name": "",
          "type": "string"
        }
      ],
      "stateMutability": "view",
      "type": "function",
      "constant": true
    },
    {
      "inputs": [
        {
          "internalType": "uint256",
          "name": "tokenId",
          "type": "uint256"
        },
        {
          "internalType": "string",
          "name": "_tokenURI",
          "type": "string"
        }
      ],
      "name": "setTokenUri",
      "outputs": [],
      "stateMutability": "nonpayable",
      "type": "function"
    }
  ],
  "bytecode": "0x60806040526103e8600a55662386f26fc10000600b5533600d60006101000a81548173ffffffffffffffffffffffffffffffffffffffff021916908373ffffffffffffffffffffffffffffffffffffffff1602179055503480156200006357600080fd5b506040518060400160405280601081526020017f466c757474657242697264536b696e73000000000000000000000000000000008152506040518060400160405280600381526020017f46425300000000000000000000000000000000000000000000000000000000008152508160009080519060200190620000e89291906200010a565b508060019080519060200190620001019291906200010a565b5050506200021e565b8280546200011890620001e9565b90600052602060002090601f0160209004810192826200013c576000855562000188565b82601f106200015757805160ff191683800117855562000188565b8280016001018555821562000188579182015b82811115620001875782518255916020019190600101906200016a565b5b5090506200019791906200019b565b5090565b5b80821115620001b65760008160009055506001016200019c565b5090565b7f4e487b7100000000000000000000000000000000000000000000000000000000600052602260045260246000fd5b600060028204905060018216806200020257607f821691505b602082108103620002185762000217620001ba565b5b50919050565b613a98806200022e6000396000f3fe60806040526004361061012a5760003560e01c80634f6ccce7116100ab57806395d89b411161006f57806395d89b411461042a578063a22cb46514610455578063b88d4fde1461047e578063c87b56dd146104a7578063e985e9c5146104e4578063f0352651146105215761012a565b80634f6ccce71461031f57806357f7789e1461035c5780636352211e1461038557806370a08231146103c25780638da5cb5b146103ff5761012a565b806318160ddd116100f257806318160ddd1461023a57806319a0b41b1461026557806323b872dd146102905780632f745c59146102b957806342842e0e146102f65761012a565b806301ffc9a71461012f57806306fdde031461016c5780630725e89814610197578063081812fc146101d4578063095ea7b314610211575b600080fd5b34801561013b57600080fd5b50610156600480360381019061015191906124f2565b61053d565b604051610163919061253a565b60405180910390f35b34801561017857600080fd5b506101816105b7565b60405161018e91906125ee565b60405180910390f35b3480156101a357600080fd5b506101be60048036038101906101b9919061266e565b610649565b6040516101cb9190612763565b60405180910390f35b3480156101e057600080fd5b506101fb60048036038101906101f691906127b1565b6106f9565b60405161020891906127ed565b60405180910390f35b34801561021d57600080fd5b5061023860048036038101906102339190612808565b61073f565b005b34801561024657600080fd5b5061024f610856565b60405161025c9190612857565b60405180910390f35b34801561027157600080fd5b5061027a610863565b6040516102879190612930565b60405180910390f35b34801561029c57600080fd5b506102b760048036038101906102b29190612952565b610912565b005b3480156102c557600080fd5b506102e060048036038101906102db9190612808565b610972565b6040516102ed9190612857565b60405180910390f35b34801561030257600080fd5b5061031d60048036038101906103189190612952565b610a17565b005b34801561032b57600080fd5b50610346600480360381019061034191906127b1565b610a37565b6040516103539190612857565b60405180910390f35b34801561036857600080fd5b50610383600480360381019061037e9190612ada565b610aa8565b005b34801561039157600080fd5b506103ac60048036038101906103a791906127b1565b610b06565b6040516103b991906127ed565b60405180910390f35b3480156103ce57600080fd5b506103e960048036038101906103e4919061266e565b610b8c565b6040516103f69190612857565b60405180910390f35b34801561040b57600080fd5b50610414610c43565b60405161042191906127ed565b60405180910390f35b34801561043657600080fd5b5061043f610c69565b60405161044c91906125ee565b60405180910390f35b34801561046157600080fd5b5061047c60048036038101906104779190612b62565b610cfb565b005b34801561048a57600080fd5b506104a560048036038101906104a09190612c43565b610d11565b005b3480156104b357600080fd5b506104ce60048036038101906104c991906127b1565b610d73565b6040516104db91906125ee565b60405180910390f35b3480156104f057600080fd5b5061050b60048036038101906105069190612cc6565b610ec4565b604051610518919061253a565b60405180910390f35b61053b600480360381019061053691906127b1565b610f58565b005b60007f780e9d63000000000000000000000000000000000000000000000000000000007bffffffffffffffffffffffffffffffffffffffffffffffffffffffff1916827bffffffffffffffffffffffffffffffffffffffffffffffffffffffff191614806105b057506105af82611052565b5b9050919050565b6060600080546105c690612d35565b80601f01602080910402602001604051908101604052809291908181526020018280546105f290612d35565b801561063f5780601f106106145761010080835404028352916020019161063f565b820191906000526020600020905b81548152906001019060200180831161062257829003601f168201915b5050505050905090565b6060600061065683610b8c565b67ffffffffffffffff81111561066f5761066e6129af565b5b60405190808252806020026020018201604052801561069d5781602001602082028036833780820191505090505b50905060005b6106ac84610b8c565b8110156106ef576106bd8482610972565b8282815181106106d0576106cf612d66565b5b60200260200101818152505080806106e790612dc4565b9150506106a3565b8192505050919050565b600061070482611134565b6004600083815260200190815260200160002060009054906101000a900473ffffffffffffffffffffffffffffffffffffffff169050919050565b600061074a82610b06565b90508073ffffffffffffffffffffffffffffffffffffffff168373ffffffffffffffffffffffffffffffffffffffff16036107ba576040517f08c379a00000000000000000000000000000000000000000000000000000000081526004016107b190612e7e565b60405180910390fd5b8073ffffffffffffffffffffffffffffffffffffffff166107d961117f565b73ffffffffffffffffffffffffffffffffffffffff16148061080857506108078161080261117f565b610ec4565b5b610847576040517f08c379a000000000000000000000000000000000000000000000000000000000815260040161083e90612f10565b60405180910390fd5b6108518383611187565b505050565b6000600880549050905090565b60606000600a5467ffffffffffffffff811115610883576108826129af565b5b6040519080825280602002602001820160405280156108b15781602001602082028036833780820191505090505b50905060005b600a5481101561090a576108ca81611240565b156108f75760018282815181106108e4576108e3612d66565b5b6020026020010190151590811515815250505b808061090290612dc4565b9150506108b7565b819250505090565b61092361091d61117f565b82611281565b610962576040517f08c379a000000000000000000000000000000000000000000000000000000000815260040161095990612fa2565b60405180910390fd5b61096d838383611316565b505050565b600061097d83610b8c565b82106109be576040517f08c379a00000000000000000000000000000000000000000000000000000000081526004016109b590613034565b60405180910390fd5b600660008473ffffffffffffffffffffffffffffffffffffffff1673ffffffffffffffffffffffffffffffffffffffff168152602001908152602001600020600083815260200190815260200160002054905092915050565b610a3283838360405180602001604052806000815250610d11565b505050565b6000610a41610856565b8210610a82576040517f08c379a0000000000000000000000000000000000000000000000000000000008152600401610a79906130c6565b60405180910390fd5b60088281548110610a9657610a95612d66565b5b90600052602060002001549050919050565b610ab9610ab361117f565b83611281565b610af8576040517f08c379a0000000000000000000000000000000000000000000000000000000008152600401610aef90613158565b60405180910390fd5b610b02828261160f565b5050565b600080610b1283611683565b9050600073ffffffffffffffffffffffffffffffffffffffff168173ffffffffffffffffffffffffffffffffffffffff1603610b83576040517f08c379a0000000000000000000000000000000000000000000000000000000008152600401610b7a906131c4565b60405180910390fd5b80915050919050565b60008073ffffffffffffffffffffffffffffffffffffffff168273ffffffffffffffffffffffffffffffffffffffff1603610bfc576040517f08c379a0000000000000000000000000000000000000000000000000000000008152600401610bf390613256565b60405180910390fd5b600360008373ffffffffffffffffffffffffffffffffffffffff1673ffffffffffffffffffffffffffffffffffffffff168152602001908152602001600020549050919050565b600d60009054906101000a900473ffffffffffffffffffffffffffffffffffffffff1681565b606060018054610c7890612d35565b80601f0160208091040260200160405190810160405280929190818152602001828054610ca490612d35565b8015610cf15780601f10610cc657610100808354040283529160200191610cf1565b820191906000526020600020905b815481529060010190602001808311610cd457829003601f168201915b5050505050905090565b610d0d610d0661117f565b83836116c0565b5050565b610d22610d1c61117f565b83611281565b610d61576040517f08c379a0000000000000000000000000000000000000000000000000000000008152600401610d5890612fa2565b60405180910390fd5b610d6d8484848461182c565b50505050565b6060610d7e82611240565b610dbd576040517f08c379a0000000000000000000000000000000000000000000000000000000008152600401610db4906132e8565b60405180910390fd5b6000600c60008481526020019081526020016000208054610ddd90612d35565b80601f0160208091040260200160405190810160405280929190818152602001828054610e0990612d35565b8015610e565780601f10610e2b57610100808354040283529160200191610e56565b820191906000526020600020905b815481529060010190602001808311610e3957829003601f168201915b505050505090506000610e67611888565b90506000815103610e7c578192505050610ebf565b600082511115610eb1578082604051602001610e99929190613344565b60405160208183030381529060405292505050610ebf565b610eba84610d73565b925050505b919050565b6000600560008473ffffffffffffffffffffffffffffffffffffffff1673ffffffffffffffffffffffffffffffffffffffff16815260200190815260200160002060008373ffffffffffffffffffffffffffffffffffffffff1673ffffffffffffffffffffffffffffffffffffffff16815260200190815260200160002060009054906101000a900460ff16905092915050565b600a548110610f9c576040517f08c379a0000000000000000000000000000000000000000000000000000000008152600401610f93906133b4565b60405180910390fd5b600b54341015610fe1576040517f08c379a0000000000000000000000000000000000000000000000000000000008152600401610fd890613420565b60405180910390fd5b610feb33826118a8565b6000610ff6826118c6565b6040516020016110069190613466565b6040516020818303038152906040529050611021828261160f565b817ff8a1d8b71931385fc2643b62738ac48b2b5dfed67d40bebe158bca04f9995e9560405160405180910390a25050565b60007f80ac58cd000000000000000000000000000000000000000000000000000000007bffffffffffffffffffffffffffffffffffffffffffffffffffffffff1916827bffffffffffffffffffffffffffffffffffffffffffffffffffffffff1916148061111d57507f5b5e139f000000000000000000000000000000000000000000000000000000007bffffffffffffffffffffffffffffffffffffffffffffffffffffffff1916827bffffffffffffffffffffffffffffffffffffffffffffffffffffffff1916145b8061112d575061112c82611994565b5b9050919050565b61113d81611240565b61117c576040517f08c379a0000000000000000000000000000000000000000000000000000000008152600401611173906131c4565b60405180910390fd5b50565b600033905090565b816004600083815260200190815260200160002060006101000a81548173ffffffffffffffffffffffffffffffffffffffff021916908373ffffffffffffffffffffffffffffffffffffffff160217905550808273ffffffffffffffffffffffffffffffffffffffff166111fa83610b06565b73ffffffffffffffffffffffffffffffffffffffff167f8c5be1e5ebec7d5bd14f71427d1e84f3dd0314c0f7b2291e5b200ac8c7c3b92560405160405180910390a45050565b60008073ffffffffffffffffffffffffffffffffffffffff1661126283611683565b73ffffffffffffffffffffffffffffffffffffffff1614159050919050565b60008061128d83610b06565b90508073ffffffffffffffffffffffffffffffffffffffff168473ffffffffffffffffffffffffffffffffffffffff1614806112cf57506112ce8185610ec4565b5b8061130d57508373ffffffffffffffffffffffffffffffffffffffff166112f5846106f9565b73ffffffffffffffffffffffffffffffffffffffff16145b91505092915050565b8273ffffffffffffffffffffffffffffffffffffffff1661133682610b06565b73ffffffffffffffffffffffffffffffffffffffff161461138c576040517f08c379a0000000000000000000000000000000000000000000000000000000008152600401611383906134fe565b60405180910390fd5b600073ffffffffffffffffffffffffffffffffffffffff168273ffffffffffffffffffffffffffffffffffffffff16036113fb576040517f08c379a00000000000000000000000000000000000000000000000000000000081526004016113f290613590565b60405180910390fd5b61140883838360016119fe565b8273ffffffffffffffffffffffffffffffffffffffff1661142882610b06565b73ffffffffffffffffffffffffffffffffffffffff161461147e576040517f08c379a0000000000000000000000000000000000000000000000000000000008152600401611475906134fe565b60405180910390fd5b6004600082815260200190815260200160002060006101000a81549073ffffffffffffffffffffffffffffffffffffffff02191690556001600360008573ffffffffffffffffffffffffffffffffffffffff1673ffffffffffffffffffffffffffffffffffffffff168152602001908152602001600020600082825403925050819055506001600360008473ffffffffffffffffffffffffffffffffffffffff1673ffffffffffffffffffffffffffffffffffffffff16815260200190815260200160002060008282540192505081905550816002600083815260200190815260200160002060006101000a81548173ffffffffffffffffffffffffffffffffffffffff021916908373ffffffffffffffffffffffffffffffffffffffff160217905550808273ffffffffffffffffffffffffffffffffffffffff168473ffffffffffffffffffffffffffffffffffffffff167fddf252ad1be2c89b69c2b068fc378daa952ba7f163c4a11628f55a4df523b3ef60405160405180910390a461160a8383836001611b5c565b505050565b61161882611240565b611657576040517f08c379a000000000000000000000000000000000000000000000000000000000815260040161164e90613622565b60405180910390fd5b80600c6000848152602001908152602001600020908051906020019061167e9291906123e3565b505050565b60006002600083815260200190815260200160002060009054906101000a900473ffffffffffffffffffffffffffffffffffffffff169050919050565b8173ffffffffffffffffffffffffffffffffffffffff168373ffffffffffffffffffffffffffffffffffffffff160361172e576040517f08c379a00000000000000000000000000000000000000000000000000000000081526004016117259061368e565b60405180910390fd5b80600560008573ffffffffffffffffffffffffffffffffffffffff1673ffffffffffffffffffffffffffffffffffffffff16815260200190815260200160002060008473ffffffffffffffffffffffffffffffffffffffff1673ffffffffffffffffffffffffffffffffffffffff16815260200190815260200160002060006101000a81548160ff0219169083151502179055508173ffffffffffffffffffffffffffffffffffffffff168373ffffffffffffffffffffffffffffffffffffffff167f17307eab39ab6107e8899845ad3d59bd9653f200f220920489ca2b5937696c318360405161181f919061253a565b60405180910390a3505050565b611837848484611316565b61184384848484611b62565b611882576040517f08c379a000000000000000000000000000000000000000000000000000000000815260040161187990613720565b60405180910390fd5b50505050565b6060604051806080016040528060438152602001613a2060439139905090565b6118c2828260405180602001604052806000815250611ce9565b5050565b6060600060016118d584611d44565b01905060008167ffffffffffffffff8111156118f4576118f36129af565b5b6040519080825280601f01601f1916602001820160405280156119265781602001600182028036833780820191505090505b509050600082602001820190505b600115611989578080600190039150507f3031323334353637383961626364656600000000000000000000000000000000600a86061a8153600a858161197d5761197c613740565b5b04945060008503611934575b819350505050919050565b60007f01ffc9a7000000000000000000000000000000000000000000000000000000007bffffffffffffffffffffffffffffffffffffffffffffffffffffffff1916827bffffffffffffffffffffffffffffffffffffffffffffffffffffffff1916149050919050565b611a0a84848484611e97565b6001811115611a4e576040517f08c379a0000000000000000000000000000000000000000000000000000000008152600401611a45906137e1565b60405180910390fd5b6000829050600073ffffffffffffffffffffffffffffffffffffffff168573ffffffffffffffffffffffffffffffffffffffff1603611a9557611a9081611e9d565b611ad4565b8373ffffffffffffffffffffffffffffffffffffffff168573ffffffffffffffffffffffffffffffffffffffff1614611ad357611ad28582611ee6565b5b5b600073ffffffffffffffffffffffffffffffffffffffff168473ffffffffffffffffffffffffffffffffffffffff1603611b1657611b1181612053565b611b55565b8473ffffffffffffffffffffffffffffffffffffffff168473ffffffffffffffffffffffffffffffffffffffff1614611b5457611b538482612124565b5b5b5050505050565b50505050565b6000611b838473ffffffffffffffffffffffffffffffffffffffff166121a3565b15611cdc578373ffffffffffffffffffffffffffffffffffffffff1663150b7a02611bac61117f565b8786866040518563ffffffff1660e01b8152600401611bce9493929190613856565b6020604051808303816000875af1925050508015611c0a57506040513d601f19601f82011682018060405250810190611c0791906138b7565b60015b611c8c573d8060008114611c3a576040519150601f19603f3d011682016040523d82523d6000602084013e611c3f565b606091505b506000815103611c84576040517f08c379a0000000000000000000000000000000000000000000000000000000008152600401611c7b90613720565b60405180910390fd5b805181602001fd5b63150b7a0260e01b7bffffffffffffffffffffffffffffffffffffffffffffffffffffffff1916817bffffffffffffffffffffffffffffffffffffffffffffffffffffffff191614915050611ce1565b600190505b949350505050565b611cf383836121c6565b611d006000848484611b62565b611d3f576040517f08c379a0000000000000000000000000000000000000000000000000000000008152600401611d3690613720565b60405180910390fd5b505050565b600080600090507a184f03e93ff9f4daa797ed6e38ed64bf6a1f0100000000000000008310611da2577a184f03e93ff9f4daa797ed6e38ed64bf6a1f0100000000000000008381611d9857611d97613740565b5b0492506040810190505b6d04ee2d6d415b85acef81000000008310611ddf576d04ee2d6d415b85acef81000000008381611dd557611dd4613740565b5b0492506020810190505b662386f26fc100008310611e0e57662386f26fc100008381611e0457611e03613740565b5b0492506010810190505b6305f5e1008310611e37576305f5e1008381611e2d57611e2c613740565b5b0492506008810190505b6127108310611e5c576127108381611e5257611e51613740565b5b0492506004810190505b60648310611e7f5760648381611e7557611e74613740565b5b0492506002810190505b600a8310611e8e576001810190505b80915050919050565b50505050565b6008805490506009600083815260200190815260200160002081905550600881908060018154018082558091505060019003906000526020600020016000909190919091505550565b60006001611ef384610b8c565b611efd91906138e4565b9050600060076000848152602001908152602001600020549050818114611fe2576000600660008673ffffffffffffffffffffffffffffffffffffffff1673ffffffffffffffffffffffffffffffffffffffff168152602001908152602001600020600084815260200190815260200160002054905080600660008773ffffffffffffffffffffffffffffffffffffffff1673ffffffffffffffffffffffffffffffffffffffff168152602001908152602001600020600084815260200190815260200160002081905550816007600083815260200190815260200160002081905550505b6007600084815260200190815260200160002060009055600660008573ffffffffffffffffffffffffffffffffffffffff1673ffffffffffffffffffffffffffffffffffffffff16815260200190815260200160002060008381526020019081526020016000206000905550505050565b6000600160088054905061206791906138e4565b905060006009600084815260200190815260200160002054905060006008838154811061209757612096612d66565b5b9060005260206000200154905080600883815481106120b9576120b8612d66565b5b90600052602060002001819055508160096000838152602001908152602001600020819055506009600085815260200190815260200160002060009055600880548061210857612107613918565b5b6001900381819060005260206000200160009055905550505050565b600061212f83610b8c565b905081600660008573ffffffffffffffffffffffffffffffffffffffff1673ffffffffffffffffffffffffffffffffffffffff168152602001908152602001600020600083815260200190815260200160002081905550806007600084815260200190815260200160002081905550505050565b6000808273ffffffffffffffffffffffffffffffffffffffff163b119050919050565b600073ffffffffffffffffffffffffffffffffffffffff168273ffffffffffffffffffffffffffffffffffffffff1603612235576040517f08c379a000000000000000000000000000000000000000000000000000000000815260040161222c90613993565b60405180910390fd5b61223e81611240565b1561227e576040517f08c379a0000000000000000000000000000000000000000000000000000000008152600401612275906139ff565b60405180910390fd5b61228c6000838360016119fe565b61229581611240565b156122d5576040517f08c379a00000000000000000000000000000000000000000000000000000000081526004016122cc906139ff565b60405180910390fd5b6001600360008473ffffffffffffffffffffffffffffffffffffffff1673ffffffffffffffffffffffffffffffffffffffff16815260200190815260200160002060008282540192505081905550816002600083815260200190815260200160002060006101000a81548173ffffffffffffffffffffffffffffffffffffffff021916908373ffffffffffffffffffffffffffffffffffffffff160217905550808273ffffffffffffffffffffffffffffffffffffffff16600073ffffffffffffffffffffffffffffffffffffffff167fddf252ad1be2c89b69c2b068fc378daa952ba7f163c4a11628f55a4df523b3ef60405160405180910390a46123df600083836001611b5c565b5050565b8280546123ef90612d35565b90600052602060002090601f0160209004810192826124115760008555612458565b82601f1061242a57805160ff1916838001178555612458565b82800160010185558215612458579182015b8281111561245757825182559160200191906001019061243c565b5b5090506124659190612469565b5090565b5b8082111561248257600081600090555060010161246a565b5090565b6000604051905090565b600080fd5b600080fd5b60007fffffffff0000000000000000000000000000000000000000000000000000000082169050919050565b6124cf8161249a565b81146124da57600080fd5b50565b6000813590506124ec816124c6565b92915050565b60006020828403121561250857612507612490565b5b6000612516848285016124dd565b91505092915050565b60008115159050919050565b6125348161251f565b82525050565b600060208201905061254f600083018461252b565b92915050565b600081519050919050565b600082825260208201905092915050565b60005b8381101561258f578082015181840152602081019050612574565b8381111561259e576000848401525b50505050565b6000601f19601f8301169050919050565b60006125c082612555565b6125ca8185612560565b93506125da818560208601612571565b6125e3816125a4565b840191505092915050565b6000602082019050818103600083015261260881846125b5565b905092915050565b600073ffffffffffffffffffffffffffffffffffffffff82169050919050565b600061263b82612610565b9050919050565b61264b81612630565b811461265657600080fd5b50565b60008135905061266881612642565b92915050565b60006020828403121561268457612683612490565b5b600061269284828501612659565b91505092915050565b600081519050919050565b600082825260208201905092915050565b6000819050602082019050919050565b6000819050919050565b6126da816126c7565b82525050565b60006126ec83836126d1565b60208301905092915050565b6000602082019050919050565b60006127108261269b565b61271a81856126a6565b9350612725836126b7565b8060005b8381101561275657815161273d88826126e0565b9750612748836126f8565b925050600181019050612729565b5085935050505092915050565b6000602082019050818103600083015261277d8184612705565b905092915050565b61278e816126c7565b811461279957600080fd5b50565b6000813590506127ab81612785565b92915050565b6000602082840312156127c7576127c6612490565b5b60006127d58482850161279c565b91505092915050565b6127e781612630565b82525050565b600060208201905061280260008301846127de565b92915050565b6000806040838503121561281f5761281e612490565b5b600061282d85828601612659565b925050602061283e8582860161279c565b9150509250929050565b612851816126c7565b82525050565b600060208201905061286c6000830184612848565b92915050565b600081519050919050565b600082825260208201905092915050565b6000819050602082019050919050565b6128a78161251f565b82525050565b60006128b9838361289e565b60208301905092915050565b6000602082019050919050565b60006128dd82612872565b6128e7818561287d565b93506128f28361288e565b8060005b8381101561292357815161290a88826128ad565b9750612915836128c5565b9250506001810190506128f6565b5085935050505092915050565b6000602082019050818103600083015261294a81846128d2565b905092915050565b60008060006060848603121561296b5761296a612490565b5b600061297986828701612659565b935050602061298a86828701612659565b925050604061299b8682870161279c565b9150509250925092565b600080fd5b600080fd5b7f4e487b7100000000000000000000000000000000000000000000000000000000600052604160045260246000fd5b6129e7826125a4565b810181811067ffffffffffffffff82111715612a0657612a056129af565b5b80604052505050565b6000612a19612486565b9050612a2582826129de565b919050565b600067ffffffffffffffff821115612a4557612a446129af565b5b612a4e826125a4565b9050602081019050919050565b82818337600083830152505050565b6000612a7d612a7884612a2a565b612a0f565b905082815260208101848484011115612a9957612a986129aa565b5b612aa4848285612a5b565b509392505050565b600082601f830112612ac157612ac06129a5565b5b8135612ad1848260208601612a6a565b91505092915050565b60008060408385031215612af157612af0612490565b5b6000612aff8582860161279c565b925050602083013567ffffffffffffffff811115612b2057612b1f612495565b5b612b2c85828601612aac565b9150509250929050565b612b3f8161251f565b8114612b4a57600080fd5b50565b600081359050612b5c81612b36565b92915050565b60008060408385031215612b7957612b78612490565b5b6000612b8785828601612659565b9250506020612b9885828601612b4d565b9150509250929050565b600067ffffffffffffffff821115612bbd57612bbc6129af565b5b612bc6826125a4565b9050602081019050919050565b6000612be6612be184612ba2565b612a0f565b905082815260208101848484011115612c0257612c016129aa565b5b612c0d848285612a5b565b509392505050565b600082601f830112612c2a57612c296129a5565b5b8135612c3a848260208601612bd3565b91505092915050565b60008060008060808587031215612c5d57612c5c612490565b5b6000612c6b87828801612659565b9450506020612c7c87828801612659565b9350506040612c8d8782880161279c565b925050606085013567ffffffffffffffff811115612cae57612cad612495565b5b612cba87828801612c15565b91505092959194509250565b60008060408385031215612cdd57612cdc612490565b5b6000612ceb85828601612659565b9250506020612cfc85828601612659565b9150509250929050565b7f4e487b7100000000000000000000000000000000000000000000000000000000600052602260045260246000fd5b60006002820490506001821680612d4d57607f821691505b602082108103612d6057612d5f612d06565b5b50919050565b7f4e487b7100000000000000000000000000000000000000000000000000000000600052603260045260246000fd5b7f4e487b7100000000000000000000000000000000000000000000000000000000600052601160045260246000fd5b6000612dcf826126c7565b91507fffffffffffffffffffffffffffffffffffffffffffffffffffffffffffffffff8203612e0157612e00612d95565b5b600182019050919050565b7f4552433732313a20617070726f76616c20746f2063757272656e74206f776e6560008201527f7200000000000000000000000000000000000000000000000000000000000000602082015250565b6000612e68602183612560565b9150612e7382612e0c565b604082019050919050565b60006020820190508181036000830152612e9781612e5b565b9050919050565b7f4552433732313a20617070726f76652063616c6c6572206973206e6f7420746f60008201527f6b656e206f776e6572206f7220617070726f76656420666f7220616c6c000000602082015250565b6000612efa603d83612560565b9150612f0582612e9e565b604082019050919050565b60006020820190508181036000830152612f2981612eed565b9050919050565b7f4552433732313a2063616c6c6572206973206e6f7420746f6b656e206f776e6560008201527f72206f7220617070726f76656400000000000000000000000000000000000000602082015250565b6000612f8c602d83612560565b9150612f9782612f30565b604082019050919050565b60006020820190508181036000830152612fbb81612f7f565b9050919050565b7f455243373231456e756d657261626c653a206f776e657220696e646578206f7560008201527f74206f6620626f756e6473000000000000000000000000000000000000000000602082015250565b600061301e602b83612560565b915061302982612fc2565b604082019050919050565b6000602082019050818103600083015261304d81613011565b9050919050565b7f455243373231456e756d657261626c653a20676c6f62616c20696e646578206f60008201527f7574206f6620626f756e64730000000000000000000000000000000000000000602082015250565b60006130b0602c83612560565b91506130bb82613054565b604082019050919050565b600060208201905081810360008301526130df816130a3565b9050919050565b7f4552433732313a207472616e736665722063616c6c6572206973206e6f74206f60008201527f776e6572206e6f7220617070726f766564000000000000000000000000000000602082015250565b6000613142603183612560565b915061314d826130e6565b604082019050919050565b6000602082019050818103600083015261317181613135565b9050919050565b7f4552433732313a20696e76616c696420746f6b656e2049440000000000000000600082015250565b60006131ae601883612560565b91506131b982613178565b602082019050919050565b600060208201905081810360008301526131dd816131a1565b9050919050565b7f4552433732313a2061646472657373207a65726f206973206e6f74206120766160008201527f6c6964206f776e65720000000000000000000000000000000000000000000000602082015250565b6000613240602983612560565b915061324b826131e4565b604082019050919050565b6000602082019050818103600083015261326f81613233565b9050919050565b7f45524337323155524953746f726167653a2055524920717565727920666f722060008201527f6e6f6e6578697374656e7420746f6b656e000000000000000000000000000000602082015250565b60006132d2603183612560565b91506132dd82613276565b604082019050919050565b60006020820190508181036000830152613301816132c5565b9050919050565b600081905092915050565b600061331e82612555565b6133288185613308565b9350613338818560208601612571565b80840191505092915050565b60006133508285613313565b915061335c8284613313565b91508190509392505050565b7f696e76616c696420746f6b656e49642e206d7573742062652023393939000000600082015250565b600061339e601d83612560565b91506133a982613368565b602082019050919050565b600060208201905081810360008301526133cd81613391565b9050919050565b7f696e73756666696369656e742066756e64730000000000000000000000000000600082015250565b600061340a601283612560565b9150613415826133d4565b602082019050919050565b60006020820190508181036000830152613439816133fd565b9050919050565b7f2e6a736f6e000000000000000000000000000000000000000000000000000000815250565b60006134728284613313565b915061347d82613440565b60058201915081905092915050565b7f4552433732313a207472616e736665722066726f6d20696e636f72726563742060008201527f6f776e6572000000000000000000000000000000000000000000000000000000602082015250565b60006134e8602583612560565b91506134f38261348c565b604082019050919050565b60006020820190508181036000830152613517816134db565b9050919050565b7f4552433732313a207472616e7366657220746f20746865207a65726f2061646460008201527f7265737300000000000000000000000000000000000000000000000000000000602082015250565b600061357a602483612560565b91506135858261351e565b604082019050919050565b600060208201905081810360008301526135a98161356d565b9050919050565b7f45524337323155524953746f726167653a2055524920736574206f66206e6f6e60008201527f6578697374656e7420746f6b656e000000000000000000000000000000000000602082015250565b600061360c602e83612560565b9150613617826135b0565b604082019050919050565b6000602082019050818103600083015261363b816135ff565b9050919050565b7f4552433732313a20617070726f766520746f2063616c6c657200000000000000600082015250565b6000613678601983612560565b915061368382613642565b602082019050919050565b600060208201905081810360008301526136a78161366b565b9050919050565b7f4552433732313a207472616e7366657220746f206e6f6e20455243373231526560008201527f63656976657220696d706c656d656e7465720000000000000000000000000000602082015250565b600061370a603283612560565b9150613715826136ae565b604082019050919050565b60006020820190508181036000830152613739816136fd565b9050919050565b7f4e487b7100000000000000000000000000000000000000000000000000000000600052601260045260246000fd5b7f455243373231456e756d657261626c653a20636f6e736563757469766520747260008201527f616e7366657273206e6f7420737570706f727465640000000000000000000000602082015250565b60006137cb603583612560565b91506137d68261376f565b604082019050919050565b600060208201905081810360008301526137fa816137be565b9050919050565b600081519050919050565b600082825260208201905092915050565b600061382882613801565b613832818561380c565b9350613842818560208601612571565b61384b816125a4565b840191505092915050565b600060808201905061386b60008301876127de565b61387860208301866127de565b6138856040830185612848565b8181036060830152613897818461381d565b905095945050505050565b6000815190506138b1816124c6565b92915050565b6000602082840312156138cd576138cc612490565b5b60006138db848285016138a2565b91505092915050565b60006138ef826126c7565b91506138fa836126c7565b92508282101561390d5761390c612d95565b5b828203905092915050565b7f4e487b7100000000000000000000000000000000000000000000000000000000600052603160045260246000fd5b7f4552433732313a206d696e7420746f20746865207a65726f2061646472657373600082015250565b600061397d602083612560565b915061398882613947565b602082019050919050565b600060208201905081810360008301526139ac81613970565b9050919050565b7f4552433732313a20746f6b656e20616c7265616479206d696e74656400000000600082015250565b60006139e9601c83612560565b91506139f4826139b3565b602082019050919050565b60006020820190508181036000830152613a18816139dc565b905091905056fe697066733a2f2f62616679626569657876717433756162717a6d6871756f6b7a796c3767636478796f777a326866326864626269666b6b79783377616768657a71652fa2646970667358221220597a555332ed0f89fca8bda5d4b9772adfdda5d61375c9365b3610e2aa2c242a64736f6c634300080e0033",
  "immutableReferences": {},
  "source": "// SPDX-License-Identifier: MIT\npragma solidity ^0.8.0;\n\nimport \"@openzeppelin/contracts/token/ERC721/extensions/ERC721Enumerable.sol\";\n\ncontract FlutterBirdSkins is ERC721Enumerable {\n    using Strings for uint256;\n\n    uint256 private _maxSupply = 1000;\n    uint256 private _mintPrice = 0.01 ether;\n\n    // Optional mapping for token URIs\n    mapping(uint256 => string) private _tokenURIs;\n\n    // Assign owner on contract creation\n    address public owner = msg.sender;\n\n    constructor() ERC721(\"FlutterBirdSkins\", \"FBS\") {}\n\n    event SkinMinted(uint256 indexed tokenId);\n\n    function mintSkin(uint256 newTokenId) public payable {\n        require(newTokenId < _maxSupply, \"invalid tokenId. must be #999\");\n        require(msg.value >= _mintPrice, \"insufficient funds\");\n\n        _safeMint(msg.sender, newTokenId);\n\n        string memory _tokenURI = string.concat(Strings.toString(newTokenId), \".json\");\n        _setTokenURI(newTokenId, _tokenURI);\n\n        emit SkinMinted(newTokenId);\n    }\n\n    /**\n     * @notice returns a list of tokenIds that are owned by the given address\n   */\n    function getTokensForOwner(address _owner) public view returns (uint[] memory) {\n        uint[] memory _tokensOfOwner = new uint[](ERC721.balanceOf(_owner));\n        uint i;\n\n        for (i = 0; i < ERC721.balanceOf(_owner); i++) {\n            _tokensOfOwner[i] = ERC721Enumerable.tokenOfOwnerByIndex(_owner, i);\n        }\n        return (_tokensOfOwner);\n    }\n\n    /**\n     * @notice returns a list of boolean values indicating whether the skin with that index has been minted already.\n   */\n    function getMintedTokenList() public view returns (bool[] memory) {\n        bool[] memory _unmintedTokes = new bool[](_maxSupply);\n        uint i;\n\n        for (i = 0; i < _maxSupply; i++) {\n            if (_exists(i)) {\n                _unmintedTokes[i] = true;\n            }\n        }\n        return _unmintedTokes;\n    }\n\n    function _baseURI() internal view virtual override returns (string memory) {\n        return \"ipfs://bafybeiexvqt3uabqzmhquokzyl7gcdxyowz2hf2hdbbifkkyx3waghezqe/\";\n    }\n\n    function tokenURI(uint256 tokenId) public view virtual override returns (string memory) {\n        require(_exists(tokenId), \"ERC721URIStorage: URI query for nonexistent token\");\n\n        string memory _tokenURI = _tokenURIs[tokenId];\n        string memory base = _baseURI();\n\n        // If there is no base URI, return the token URI.\n        if (bytes(base).length == 0) {\n            return _tokenURI;\n        }\n        // If both are set, concatenate the baseURI and tokenURI (via abi.encodePacked).\n        if (bytes(_tokenURI).length > 0) {\n            return string(abi.encodePacked(base, _tokenURI));\n        }\n\n        return tokenURI(tokenId);\n    }\n\n    function setTokenUri(uint256 tokenId, string memory _tokenURI) public {\n        require(\n            _isApprovedOrOwner(_msgSender(), tokenId),\n            \"ERC721: transfer caller is not owner nor approved\"\n        );\n        _setTokenURI(tokenId, _tokenURI);\n    }\n\n    function _setTokenURI(uint256 tokenId, string memory _tokenURI) internal virtual {\n        require(_exists(tokenId), \"ERC721URIStorage: URI set of nonexistent token\");\n        _tokenURIs[tokenId] = _tokenURI;\n    }\n}\n",
  "sourcePath": "/app/flutter_bird_skins/contracts/FlutterBirdSkins.sol",
  "compiler": {
    "name": "solc",
    "version": "0.8.14+commit.80d49f37.Emscripten.clang"
  },
  "schemaVersion": "3.4.16",
  "updatedAt": "2024-07-08T11:09:13.963Z",
  "networkType": "ethereum",
  "devdoc": {
    "kind": "dev",
    "methods": {
      "approve(address,uint256)": {
        "details": "See {IERC721-approve}."
      },
      "balanceOf(address)": {
        "details": "See {IERC721-balanceOf}."
      },
      "getApproved(uint256)": {
        "details": "See {IERC721-getApproved}."
      },
      "isApprovedForAll(address,address)": {
        "details": "See {IERC721-isApprovedForAll}."
      },
      "name()": {
        "details": "See {IERC721Metadata-name}."
      },
      "ownerOf(uint256)": {
        "details": "See {IERC721-ownerOf}."
      },
      "safeTransferFrom(address,address,uint256)": {
        "details": "See {IERC721-safeTransferFrom}."
      },
      "safeTransferFrom(address,address,uint256,bytes)": {
        "details": "See {IERC721-safeTransferFrom}."
      },
      "setApprovalForAll(address,bool)": {
        "details": "See {IERC721-setApprovalForAll}."
      },
      "supportsInterface(bytes4)": {
        "details": "See {IERC165-supportsInterface}."
      },
      "symbol()": {
        "details": "See {IERC721Metadata-symbol}."
      },
      "tokenByIndex(uint256)": {
        "details": "See {IERC721Enumerable-tokenByIndex}."
      },
      "tokenOfOwnerByIndex(address,uint256)": {
        "details": "See {IERC721Enumerable-tokenOfOwnerByIndex}."
      },
      "tokenURI(uint256)": {
        "details": "See {IERC721Metadata-tokenURI}."
      },
      "totalSupply()": {
        "details": "See {IERC721Enumerable-totalSupply}."
      },
      "transferFrom(address,address,uint256)": {
        "details": "See {IERC721-transferFrom}."
      }
    },
    "version": 1
  },
  "userdoc": {
    "kind": "user",
    "methods": {
      "getMintedTokenList()": {
        "notice": "returns a list of boolean values indicating whether the skin with that index has been minted already."
      },
      "getTokensForOwner(address)": {
        "notice": "returns a list of tokenIds that are owned by the given address"
      }
    },
    "version": 1
  }
}