{
  "contractName": "FlutterBirdSkins",
  "abi": [
    {
      "inputs": [],
      "stateMutability": "nonpayable",
      "type": "constructor"
    },
    {
      "inputs": [
        {
          "internalType": "uint256",
          "name": "_size",
          "type": "uint256"
        },
        {
          "internalType": "uint256",
          "name": "_start",
          "type": "uint256"
        },
        {
          "internalType": "uint256",
          "name": "_end",
          "type": "uint256"
        }
      ],
      "name": "InvalidCodeAtRange",
      "type": "error"
    },
    {
      "inputs": [],
      "name": "TokenDoesNotExist",
      "type": "error"
    },
    {
      "inputs": [],
      "name": "WriteError",
      "type": "error"
    },
    {
      "anonymous": false,
      "inputs": [
        {
          "indexed": true,
          "internalType": "address",
          "name": "owner",
          "type": "address"
        },
        {
          "indexed": true,
          "internalType": "address",
          "name": "approved",
          "type": "address"
        },
        {
          "indexed": true,
          "internalType": "uint256",
          "name": "tokenId",
          "type": "uint256"
        }
      ],
      "name": "Approval",
      "type": "event"
    },
    {
      "anonymous": false,
      "inputs": [
        {
          "indexed": true,
          "internalType": "address",
          "name": "owner",
          "type": "address"
        },
        {
          "indexed": true,
          "internalType": "address",
          "name": "operator",
          "type": "address"
        },
        {
          "indexed": false,
          "internalType": "bool",
          "name": "approved",
          "type": "bool"
        }
      ],
      "name": "ApprovalForAll",
      "type": "event"
    },
    {
      "anonymous": false,
      "inputs": [
        {
          "indexed": true,
          "internalType": "address",
          "name": "previousOwner",
          "type": "address"
        },
        {
          "indexed": true,
          "internalType": "address",
          "name": "newOwner",
          "type": "address"
        }
      ],
      "name": "OwnershipTransferred",
      "type": "event"
    },
    {
      "anonymous": false,
      "inputs": [
        {
          "indexed": true,
          "internalType": "uint256",
          "name": "tokenId",
          "type": "uint256"
        }
      ],
      "name": "SkinMinted",
      "type": "event"
    },
    {
      "anonymous": false,
      "inputs": [
        {
          "indexed": true,
          "internalType": "address",
          "name": "from",
          "type": "address"
        },
        {
          "indexed": true,
          "internalType": "address",
          "name": "to",
          "type": "address"
        },
        {
          "indexed": true,
          "internalType": "uint256",
          "name": "tokenId",
          "type": "uint256"
        }
      ],
      "name": "Transfer",
      "type": "event"
    },
    {
      "inputs": [
        {
          "internalType": "address",
          "name": "to",
          "type": "address"
        },
        {
          "internalType": "uint256",
          "name": "tokenId",
          "type": "uint256"
        }
      ],
      "name": "approve",
      "outputs": [],
      "stateMutability": "nonpayable",
      "type": "function"
    },
    {
      "inputs": [
        {
          "internalType": "address",
          "name": "owner",
          "type": "address"
        }
      ],
      "name": "balanceOf",
      "outputs": [
        {
          "internalType": "uint256",
          "name": "",
          "type": "uint256"
        }
      ],
      "stateMutability": "view",
      "type": "function",
      "constant": true
    },
    {
      "inputs": [
        {
          "internalType": "uint256",
          "name": "tokenId",
          "type": "uint256"
        }
      ],
      "name": "getApproved",
      "outputs": [
        {
          "internalType": "address",
          "name": "",
          "type": "address"
        }
      ],
      "stateMutability": "view",
      "type": "function",
      "constant": true
    },
    {
      "inputs": [
        {
          "internalType": "address",
          "name": "owner",
          "type": "address"
        },
        {
          "internalType": "address",
          "name": "operator",
          "type": "address"
        }
      ],
      "name": "isApprovedForAll",
      "outputs": [
        {
          "internalType": "bool",
          "name": "",
          "type": "bool"
        }
      ],
      "stateMutability": "view",
      "type": "function",
      "constant": true
    },
    {
      "inputs": [],
      "name": "name",
      "outputs": [
        {
          "internalType": "string",
          "name": "",
          "type": "string"
        }
      ],
      "stateMutability": "view",
      "type": "function",
      "constant": true
    },
    {
      "inputs": [],
      "name": "owner",
      "outputs": [
        {
          "internalType": "address",
          "name": "",
          "type": "address"
        }
      ],
      "stateMutability": "view",
      "type": "function",
      "constant": true
    },
    {
      "inputs": [
        {
          "internalType": "uint256",
          "name": "tokenId",
          "type": "uint256"
        }
      ],
      "name": "ownerOf",
      "outputs": [
        {
          "internalType": "address",
          "name": "",
          "type": "address"
        }
      ],
      "stateMutability": "view",
      "type": "function",
      "constant": true
    },
    {
      "inputs": [],
      "name": "renounceOwnership",
      "outputs": [],
      "stateMutability": "nonpayable",
      "type": "function"
    },
    {
      "inputs": [
        {
          "internalType": "address",
          "name": "from",
          "type": "address"
        },
        {
          "internalType": "address",
          "name": "to",
          "type": "address"
        },
        {
          "internalType": "uint256",
          "name": "tokenId",
          "type": "uint256"
        }
      ],
      "name": "safeTransferFrom",
      "outputs": [],
      "stateMutability": "nonpayable",
      "type": "function"
    },
    {
      "inputs": [
        {
          "internalType": "address",
          "name": "from",
          "type": "address"
        },
        {
          "internalType": "address",
          "name": "to",
          "type": "address"
        },
        {
          "internalType": "uint256",
          "name": "tokenId",
          "type": "uint256"
        },
        {
          "internalType": "bytes",
          "name": "data",
          "type": "bytes"
        }
      ],
      "name": "safeTransferFrom",
      "outputs": [],
      "stateMutability": "nonpayable",
      "type": "function"
    },
    {
      "inputs": [
        {
          "internalType": "address",
          "name": "operator",
          "type": "address"
        },
        {
          "internalType": "bool",
          "name": "approved",
          "type": "bool"
        }
      ],
      "name": "setApprovalForAll",
      "outputs": [],
      "stateMutability": "nonpayable",
      "type": "function"
    },
    {
      "inputs": [
        {
          "internalType": "bytes4",
          "name": "interfaceId",
          "type": "bytes4"
        }
      ],
      "name": "supportsInterface",
      "outputs": [
        {
          "internalType": "bool",
          "name": "",
          "type": "bool"
        }
      ],
      "stateMutability": "view",
      "type": "function",
      "constant": true
    },
    {
      "inputs": [],
      "name": "symbol",
      "outputs": [
        {
          "internalType": "string",
          "name": "",
          "type": "string"
        }
      ],
      "stateMutability": "view",
      "type": "function",
      "constant": true
    },
    {
      "inputs": [
        {
          "internalType": "uint256",
          "name": "index",
          "type": "uint256"
        }
      ],
      "name": "tokenByIndex",
      "outputs": [
        {
          "internalType": "uint256",
          "name": "",
          "type": "uint256"
        }
      ],
      "stateMutability": "view",
      "type": "function",
      "constant": true
    },
    {
      "inputs": [
        {
          "internalType": "address",
          "name": "owner",
          "type": "address"
        },
        {
          "internalType": "uint256",
          "name": "index",
          "type": "uint256"
        }
      ],
      "name": "tokenOfOwnerByIndex",
      "outputs": [
        {
          "internalType": "uint256",
          "name": "",
          "type": "uint256"
        }
      ],
      "stateMutability": "view",
      "type": "function",
      "constant": true
    },
    {
      "inputs": [],
      "name": "totalSupply",
      "outputs": [
        {
          "internalType": "uint256",
          "name": "",
          "type": "uint256"
        }
      ],
      "stateMutability": "view",
      "type": "function",
      "constant": true
    },
    {
      "inputs": [
        {
          "internalType": "address",
          "name": "from",
          "type": "address"
        },
        {
          "internalType": "address",
          "name": "to",
          "type": "address"
        },
        {
          "internalType": "uint256",
          "name": "tokenId",
          "type": "uint256"
        }
      ],
      "name": "transferFrom",
      "outputs": [],
      "stateMutability": "nonpayable",
      "type": "function"
    },
    {
      "inputs": [
        {
          "internalType": "address",
          "name": "newOwner",
          "type": "address"
        }
      ],
      "name": "transferOwnership",
      "outputs": [],
      "stateMutability": "nonpayable",
      "type": "function"
    },
    {
      "inputs": [
        {
          "internalType": "uint256",
          "name": "newTokenId",
          "type": "uint256"
        }
      ],
      "name": "mintSkin",
      "outputs": [],
      "stateMutability": "payable",
      "type": "function",
      "payable": true
    },
    {
      "inputs": [
        {
          "internalType": "address",
          "name": "_owner",
          "type": "address"
        }
      ],
      "name": "getTokensForOwner",
      "outputs": [
        {
          "internalType": "uint256[]",
          "name": "",
          "type": "uint256[]"
        }
      ],
      "stateMutability": "view",
      "type": "function",
      "constant": true
    },
    {
      "inputs": [],
      "name": "getMintedTokenList",
      "outputs": [
        {
          "internalType": "bool[]",
          "name": "",
          "type": "bool[]"
        }
      ],
      "stateMutability": "view",
      "type": "function",
      "constant": true
    },
    {
      "inputs": [
        {
          "internalType": "uint256",
          "name": "tokenId",
          "type": "uint256"
        },
        {
          "internalType": "bytes[]",
          "name": "values",
          "type": "bytes[]"
        }
      ],
      "name": "appendUri",
      "outputs": [],
      "stateMutability": "nonpayable",
      "type": "function"
    },
    {
      "inputs": [
        {
          "internalType": "uint256",
          "name": "tokenId",
          "type": "uint256"
        }
      ],
      "name": "tokenURI",
      "outputs": [
        {
          "internalType": "string",
          "name": "",
          "type": "string"
        }
      ],
      "stateMutability": "view",
      "type": "function",
      "constant": true
    }
  ],
  "bytecode": "0x60806040526103e8600b55662386f26fc10000600c553480156200002257600080fd5b506040518060400160405280601081526020017f466c757474657242697264536b696e73000000000000000000000000000000008152506040518060400160405280600381526020017f46425300000000000000000000000000000000000000000000000000000000008152508160009080519060200190620000a7929190620001b7565b508060019080519060200190620000c0929190620001b7565b505050620000e3620000d7620000e960201b60201c565b620000f160201b60201c565b620002cb565b600033905090565b6000600a60009054906101000a900473ffffffffffffffffffffffffffffffffffffffff16905081600a60006101000a81548173ffffffffffffffffffffffffffffffffffffffff021916908373ffffffffffffffffffffffffffffffffffffffff1602179055508173ffffffffffffffffffffffffffffffffffffffff168173ffffffffffffffffffffffffffffffffffffffff167f8be0079c531659141344cd1fd0a4f28419497f9722a3daafe3b4186f6b6457e060405160405180910390a35050565b828054620001c59062000296565b90600052602060002090601f016020900481019282620001e9576000855562000235565b82601f106200020457805160ff191683800117855562000235565b8280016001018555821562000235579182015b828111156200023457825182559160200191906001019062000217565b5b50905062000244919062000248565b5090565b5b808211156200026357600081600090555060010162000249565b5090565b7f4e487b7100000000000000000000000000000000000000000000000000000000600052602260045260246000fd5b60006002820490506001821680620002af57607f821691505b602082108103620002c557620002c462000267565b5b50919050565b613f2580620002db6000396000f3fe6080604052600436106101405760003560e01c80634f6ccce7116100b6578063a22cb4651161006f578063a22cb46514610482578063b88d4fde146104ab578063c87b56dd146104d4578063e985e9c514610511578063f03526511461054e578063f2fde38b1461056a57610140565b80634f6ccce71461035e5780636352211e1461039b57806370a08231146103d8578063715018a6146104155780638da5cb5b1461042c57806395d89b411461045757610140565b806318160ddd1161010857806318160ddd1461025057806319a0b41b1461027b57806323b872dd146102a65780632f0fe447146102cf5780632f745c59146102f857806342842e0e1461033557610140565b806301ffc9a71461014557806306fdde03146101825780630725e898146101ad578063081812fc146101ea578063095ea7b314610227575b600080fd5b34801561015157600080fd5b5061016c60048036038101906101679190612764565b610593565b60405161017991906127ac565b60405180910390f35b34801561018e57600080fd5b5061019761060d565b6040516101a49190612860565b60405180910390f35b3480156101b957600080fd5b506101d460048036038101906101cf91906128e0565b61069f565b6040516101e191906129d5565b60405180910390f35b3480156101f657600080fd5b50610211600480360381019061020c9190612a23565b61074f565b60405161021e9190612a5f565b60405180910390f35b34801561023357600080fd5b5061024e60048036038101906102499190612a7a565b610795565b005b34801561025c57600080fd5b506102656108ac565b6040516102729190612ac9565b60405180910390f35b34801561028757600080fd5b506102906108b9565b60405161029d9190612ba2565b60405180910390f35b3480156102b257600080fd5b506102cd60048036038101906102c89190612bc4565b610968565b005b3480156102db57600080fd5b506102f660048036038101906102f19190612c7c565b6109c8565b005b34801561030457600080fd5b5061031f600480360381019061031a9190612a7a565b610b30565b60405161032c9190612ac9565b60405180910390f35b34801561034157600080fd5b5061035c60048036038101906103579190612bc4565b610bd5565b005b34801561036a57600080fd5b5061038560048036038101906103809190612a23565b610bf5565b6040516103929190612ac9565b60405180910390f35b3480156103a757600080fd5b506103c260048036038101906103bd9190612a23565b610c66565b6040516103cf9190612a5f565b60405180910390f35b3480156103e457600080fd5b506103ff60048036038101906103fa91906128e0565b610cec565b60405161040c9190612ac9565b60405180910390f35b34801561042157600080fd5b5061042a610da3565b005b34801561043857600080fd5b50610441610db7565b60405161044e9190612a5f565b60405180910390f35b34801561046357600080fd5b5061046c610de1565b6040516104799190612860565b60405180910390f35b34801561048e57600080fd5b506104a960048036038101906104a49190612d08565b610e73565b005b3480156104b757600080fd5b506104d260048036038101906104cd9190612e78565b610e89565b005b3480156104e057600080fd5b506104fb60048036038101906104f69190612a23565b610eeb565b6040516105089190612860565b60405180910390f35b34801561051d57600080fd5b5061053860048036038101906105339190612efb565b61106e565b60405161054591906127ac565b60405180910390f35b61056860048036038101906105639190612a23565b611102565b005b34801561057657600080fd5b50610591600480360381019061058c91906128e0565b6111c5565b005b60007f780e9d63000000000000000000000000000000000000000000000000000000007bffffffffffffffffffffffffffffffffffffffffffffffffffffffff1916827bffffffffffffffffffffffffffffffffffffffffffffffffffffffff19161480610606575061060582611248565b5b9050919050565b60606000805461061c90612f6a565b80601f016020809104026020016040519081016040528092919081815260200182805461064890612f6a565b80156106955780601f1061066a57610100808354040283529160200191610695565b820191906000526020600020905b81548152906001019060200180831161067857829003601f168201915b5050505050905090565b606060006106ac83610cec565b67ffffffffffffffff8111156106c5576106c4612d4d565b5b6040519080825280602002602001820160405280156106f35781602001602082028036833780820191505090505b50905060005b61070284610cec565b811015610745576107138482610b30565b82828151811061072657610725612f9b565b5b602002602001018181525050808061073d90612ff9565b9150506106f9565b8192505050919050565b600061075a8261132a565b6004600083815260200190815260200160002060009054906101000a900473ffffffffffffffffffffffffffffffffffffffff169050919050565b60006107a082610c66565b90508073ffffffffffffffffffffffffffffffffffffffff168373ffffffffffffffffffffffffffffffffffffffff1603610810576040517f08c379a0000000000000000000000000000000000000000000000000000000008152600401610807906130b3565b60405180910390fd5b8073ffffffffffffffffffffffffffffffffffffffff1661082f611375565b73ffffffffffffffffffffffffffffffffffffffff16148061085e575061085d81610858611375565b61106e565b5b61089d576040517f08c379a000000000000000000000000000000000000000000000000000000000815260040161089490613145565b60405180910390fd5b6108a7838361137d565b505050565b6000600880549050905090565b60606000600b5467ffffffffffffffff8111156108d9576108d8612d4d565b5b6040519080825280602002602001820160405280156109075781602001602082028036833780820191505090505b50905060005b600b548110156109605761092081611436565b1561094d57600182828151811061093a57610939612f9b565b5b6020026020010190151590811515815250505b808061095890612ff9565b91505061090d565b819250505090565b610979610973611375565b82611477565b6109b8576040517f08c379a00000000000000000000000000000000000000000000000000000000081526004016109af906131d7565b60405180910390fd5b6109c383838361150c565b505050565b6109d0611805565b60005b82829050811015610b2a57600d6000858152602001908152602001600020600101610a64848484818110610a0a57610a09612f9b565b5b9050602002810190610a1c9190613206565b8080601f016020809104026020016040519081016040528093929190818152602001838380828437600081840152601f19601f82011690508083019250505050505050611883565b9080600181540180825580915050600190039060005260206000200160009091909190916101000a81548173ffffffffffffffffffffffffffffffffffffffff021916908373ffffffffffffffffffffffffffffffffffffffff160217905550828282818110610ad757610ad6612f9b565b5b9050602002810190610ae99190613206565b9050600d60008681526020019081526020016000206000016000828254610b109190613269565b925050819055508080610b2290612ff9565b9150506109d3565b50505050565b6000610b3b83610cec565b8210610b7c576040517f08c379a0000000000000000000000000000000000000000000000000000000008152600401610b7390613331565b60405180910390fd5b600660008473ffffffffffffffffffffffffffffffffffffffff1673ffffffffffffffffffffffffffffffffffffffff168152602001908152602001600020600083815260200190815260200160002054905092915050565b610bf083838360405180602001604052806000815250610e89565b505050565b6000610bff6108ac565b8210610c40576040517f08c379a0000000000000000000000000000000000000000000000000000000008152600401610c37906133c3565b60405180910390fd5b60088281548110610c5457610c53612f9b565b5b90600052602060002001549050919050565b600080610c7283611927565b9050600073ffffffffffffffffffffffffffffffffffffffff168173ffffffffffffffffffffffffffffffffffffffff1603610ce3576040517f08c379a0000000000000000000000000000000000000000000000000000000008152600401610cda9061342f565b60405180910390fd5b80915050919050565b60008073ffffffffffffffffffffffffffffffffffffffff168273ffffffffffffffffffffffffffffffffffffffff1603610d5c576040517f08c379a0000000000000000000000000000000000000000000000000000000008152600401610d53906134c1565b60405180910390fd5b600360008373ffffffffffffffffffffffffffffffffffffffff1673ffffffffffffffffffffffffffffffffffffffff168152602001908152602001600020549050919050565b610dab611805565b610db56000611964565b565b6000600a60009054906101000a900473ffffffffffffffffffffffffffffffffffffffff16905090565b606060018054610df090612f6a565b80601f0160208091040260200160405190810160405280929190818152602001828054610e1c90612f6a565b8015610e695780601f10610e3e57610100808354040283529160200191610e69565b820191906000526020600020905b815481529060010190602001808311610e4c57829003601f168201915b5050505050905090565b610e85610e7e611375565b8383611a2a565b5050565b610e9a610e94611375565b83611477565b610ed9576040517f08c379a0000000000000000000000000000000000000000000000000000000008152600401610ed0906131d7565b60405180910390fd5b610ee584848484611b96565b50505050565b6060610ef682611436565b610f2c576040517fceea21b600000000000000000000000000000000000000000000000000000000815260040160405180910390fd5b6000600d60008481526020019081526020016000206000015467ffffffffffffffff811115610f5e57610f5d612d4d565b5b6040519080825280601f01601f191660200182016040528015610f905781602001600182028036833780820191505090505b5090506000610f9e82611bf2565b50905060005b600d600086815260200190815260200160002060010180549050811015611063576000611022600d60008881526020019081526020016000206001018381548110610ff257610ff1612f9b565b5b9060005260206000200160009054906101000a900473ffffffffffffffffffffffffffffffffffffffff16611c04565b905060008061103083611bf2565b9150915061103f828683611c39565b808561104b9190613269565b9450505050808061105b90612ff9565b915050610fa4565b508192505050919050565b6000600560008473ffffffffffffffffffffffffffffffffffffffff1673ffffffffffffffffffffffffffffffffffffffff16815260200190815260200160002060008373ffffffffffffffffffffffffffffffffffffffff1673ffffffffffffffffffffffffffffffffffffffff16815260200190815260200160002060009054906101000a900460ff16905092915050565b600b548110611146576040517f08c379a000000000000000000000000000000000000000000000000000000000815260040161113d9061352d565b60405180910390fd5b600c5434101561118b576040517f08c379a000000000000000000000000000000000000000000000000000000000815260040161118290613599565b60405180910390fd5b6111953382611cc2565b807ff8a1d8b71931385fc2643b62738ac48b2b5dfed67d40bebe158bca04f9995e9560405160405180910390a250565b6111cd611805565b600073ffffffffffffffffffffffffffffffffffffffff168173ffffffffffffffffffffffffffffffffffffffff160361123c576040517f08c379a00000000000000000000000000000000000000000000000000000000081526004016112339061362b565b60405180910390fd5b61124581611964565b50565b60007f80ac58cd000000000000000000000000000000000000000000000000000000007bffffffffffffffffffffffffffffffffffffffffffffffffffffffff1916827bffffffffffffffffffffffffffffffffffffffffffffffffffffffff1916148061131357507f5b5e139f000000000000000000000000000000000000000000000000000000007bffffffffffffffffffffffffffffffffffffffffffffffffffffffff1916827bffffffffffffffffffffffffffffffffffffffffffffffffffffffff1916145b80611323575061132282611ce0565b5b9050919050565b61133381611436565b611372576040517f08c379a00000000000000000000000000000000000000000000000000000000081526004016113699061342f565b60405180910390fd5b50565b600033905090565b816004600083815260200190815260200160002060006101000a81548173ffffffffffffffffffffffffffffffffffffffff021916908373ffffffffffffffffffffffffffffffffffffffff160217905550808273ffffffffffffffffffffffffffffffffffffffff166113f083610c66565b73ffffffffffffffffffffffffffffffffffffffff167f8c5be1e5ebec7d5bd14f71427d1e84f3dd0314c0f7b2291e5b200ac8c7c3b92560405160405180910390a45050565b60008073ffffffffffffffffffffffffffffffffffffffff1661145883611927565b73ffffffffffffffffffffffffffffffffffffffff1614159050919050565b60008061148383610c66565b90508073ffffffffffffffffffffffffffffffffffffffff168473ffffffffffffffffffffffffffffffffffffffff1614806114c557506114c4818561106e565b5b8061150357508373ffffffffffffffffffffffffffffffffffffffff166114eb8461074f565b73ffffffffffffffffffffffffffffffffffffffff16145b91505092915050565b8273ffffffffffffffffffffffffffffffffffffffff1661152c82610c66565b73ffffffffffffffffffffffffffffffffffffffff1614611582576040517f08c379a0000000000000000000000000000000000000000000000000000000008152600401611579906136bd565b60405180910390fd5b600073ffffffffffffffffffffffffffffffffffffffff168273ffffffffffffffffffffffffffffffffffffffff16036115f1576040517f08c379a00000000000000000000000000000000000000000000000000000000081526004016115e89061374f565b60405180910390fd5b6115fe8383836001611d4a565b8273ffffffffffffffffffffffffffffffffffffffff1661161e82610c66565b73ffffffffffffffffffffffffffffffffffffffff1614611674576040517f08c379a000000000000000000000000000000000000000000000000000000000815260040161166b906136bd565b60405180910390fd5b6004600082815260200190815260200160002060006101000a81549073ffffffffffffffffffffffffffffffffffffffff02191690556001600360008573ffffffffffffffffffffffffffffffffffffffff1673ffffffffffffffffffffffffffffffffffffffff168152602001908152602001600020600082825403925050819055506001600360008473ffffffffffffffffffffffffffffffffffffffff1673ffffffffffffffffffffffffffffffffffffffff16815260200190815260200160002060008282540192505081905550816002600083815260200190815260200160002060006101000a81548173ffffffffffffffffffffffffffffffffffffffff021916908373ffffffffffffffffffffffffffffffffffffffff160217905550808273ffffffffffffffffffffffffffffffffffffffff168473ffffffffffffffffffffffffffffffffffffffff167fddf252ad1be2c89b69c2b068fc378daa952ba7f163c4a11628f55a4df523b3ef60405160405180910390a46118008383836001611ea8565b505050565b61180d611375565b73ffffffffffffffffffffffffffffffffffffffff1661182b610db7565b73ffffffffffffffffffffffffffffffffffffffff1614611881576040517f08c379a0000000000000000000000000000000000000000000000000000000008152600401611878906137bb565b60405180910390fd5b565b6000806118ae8360405160200161189a9190613859565b604051602081830303815290604052611eae565b90508051602082016000f09150600073ffffffffffffffffffffffffffffffffffffffff168273ffffffffffffffffffffffffffffffffffffffff1603611921576040517f08d4abb600000000000000000000000000000000000000000000000000000000815260040160405180910390fd5b50919050565b60006002600083815260200190815260200160002060009054906101000a900473ffffffffffffffffffffffffffffffffffffffff169050919050565b6000600a60009054906101000a900473ffffffffffffffffffffffffffffffffffffffff16905081600a60006101000a81548173ffffffffffffffffffffffffffffffffffffffff021916908373ffffffffffffffffffffffffffffffffffffffff1602179055508173ffffffffffffffffffffffffffffffffffffffff168173ffffffffffffffffffffffffffffffffffffffff167f8be0079c531659141344cd1fd0a4f28419497f9722a3daafe3b4186f6b6457e060405160405180910390a35050565b8173ffffffffffffffffffffffffffffffffffffffff168373ffffffffffffffffffffffffffffffffffffffff1603611a98576040517f08c379a0000000000000000000000000000000000000000000000000000000008152600401611a8f906138c7565b60405180910390fd5b80600560008573ffffffffffffffffffffffffffffffffffffffff1673ffffffffffffffffffffffffffffffffffffffff16815260200190815260200160002060008473ffffffffffffffffffffffffffffffffffffffff1673ffffffffffffffffffffffffffffffffffffffff16815260200190815260200160002060006101000a81548160ff0219169083151502179055508173ffffffffffffffffffffffffffffffffffffffff168373ffffffffffffffffffffffffffffffffffffffff167f17307eab39ab6107e8899845ad3d59bd9653f200f220920489ca2b5937696c3183604051611b8991906127ac565b60405180910390a3505050565b611ba184848461150c565b611bad84848484611eda565b611bec576040517f08c379a0000000000000000000000000000000000000000000000000000000008152600401611be390613959565b60405180910390fd5b50505050565b60008082519050602083019150915091565b6060611c328260017fffffffffffffffffffffffffffffffffffffffffffffffffffffffffffffffff612061565b9050919050565b5b60208110611c785782518252602082611c539190613269565b9150602083611c629190613269565b9250602081611c719190613979565b9050611c3a565b6000810315611cbd5760006001826020611c929190613979565b610100611c9f9190613ae0565b611ca99190613979565b905080198451168184511681811785525050505b505050565b611cdc828260405180602001604052806000815250612146565b5050565b60007f01ffc9a7000000000000000000000000000000000000000000000000000000007bffffffffffffffffffffffffffffffffffffffffffffffffffffffff1916827bffffffffffffffffffffffffffffffffffffffffffffffffffffffff1916149050919050565b611d56848484846121a1565b6001811115611d9a576040517f08c379a0000000000000000000000000000000000000000000000000000000008152600401611d9190613b9d565b60405180910390fd5b6000829050600073ffffffffffffffffffffffffffffffffffffffff168573ffffffffffffffffffffffffffffffffffffffff1603611de157611ddc816121a7565b611e20565b8373ffffffffffffffffffffffffffffffffffffffff168573ffffffffffffffffffffffffffffffffffffffff1614611e1f57611e1e85826121f0565b5b5b600073ffffffffffffffffffffffffffffffffffffffff168473ffffffffffffffffffffffffffffffffffffffff1603611e6257611e5d8161235d565b611ea1565b8473ffffffffffffffffffffffffffffffffffffffff168473ffffffffffffffffffffffffffffffffffffffff1614611ea057611e9f848261242e565b5b5b5050505050565b50505050565b6060815182604051602001611ec4929190613c9b565b6040516020818303038152906040529050919050565b6000611efb8473ffffffffffffffffffffffffffffffffffffffff166124ad565b15612054578373ffffffffffffffffffffffffffffffffffffffff1663150b7a02611f24611375565b8786866040518563ffffffff1660e01b8152600401611f469493929190613d23565b6020604051808303816000875af1925050508015611f8257506040513d601f19601f82011682018060405250810190611f7f9190613d84565b60015b612004573d8060008114611fb2576040519150601f19603f3d011682016040523d82523d6000602084013e611fb7565b606091505b506000815103611ffc576040517f08c379a0000000000000000000000000000000000000000000000000000000008152600401611ff390613959565b60405180910390fd5b805181602001fd5b63150b7a0260e01b7bffffffffffffffffffffffffffffffffffffffffffffffffffffffff1916817bffffffffffffffffffffffffffffffffffffffffffffffffffffffff191614915050612059565b600190505b949350505050565b6060600061206e856124d0565b905060008103612090576040518060200160405280600081525091505061213f565b808411156120b0576040518060200160405280600081525091505061213f565b838310156120f9578084846040517f2c4a89fa0000000000000000000000000000000000000000000000000000000081526004016120f093929190613db1565b60405180910390fd5b600084840390506000858303905060008282106121165782612118565b815b90506040519450601f19601f60208301011685016040528085528087602087018a3c505050505b9392505050565b61215083836124db565b61215d6000848484611eda565b61219c576040517f08c379a000000000000000000000000000000000000000000000000000000000815260040161219390613959565b60405180910390fd5b505050565b50505050565b6008805490506009600083815260200190815260200160002081905550600881908060018154018082558091505060019003906000526020600020016000909190919091505550565b600060016121fd84610cec565b6122079190613979565b90506000600760008481526020019081526020016000205490508181146122ec576000600660008673ffffffffffffffffffffffffffffffffffffffff1673ffffffffffffffffffffffffffffffffffffffff168152602001908152602001600020600084815260200190815260200160002054905080600660008773ffffffffffffffffffffffffffffffffffffffff1673ffffffffffffffffffffffffffffffffffffffff168152602001908152602001600020600084815260200190815260200160002081905550816007600083815260200190815260200160002081905550505b6007600084815260200190815260200160002060009055600660008573ffffffffffffffffffffffffffffffffffffffff1673ffffffffffffffffffffffffffffffffffffffff16815260200190815260200160002060008381526020019081526020016000206000905550505050565b600060016008805490506123719190613979565b90506000600960008481526020019081526020016000205490506000600883815481106123a1576123a0612f9b565b5b9060005260206000200154905080600883815481106123c3576123c2612f9b565b5b90600052602060002001819055508160096000838152602001908152602001600020819055506009600085815260200190815260200160002060009055600880548061241257612411613de8565b5b6001900381819060005260206000200160009055905550505050565b600061243983610cec565b905081600660008573ffffffffffffffffffffffffffffffffffffffff1673ffffffffffffffffffffffffffffffffffffffff168152602001908152602001600020600083815260200190815260200160002081905550806007600084815260200190815260200160002081905550505050565b6000808273ffffffffffffffffffffffffffffffffffffffff163b119050919050565b6000813b9050919050565b600073ffffffffffffffffffffffffffffffffffffffff168273ffffffffffffffffffffffffffffffffffffffff160361254a576040517f08c379a000000000000000000000000000000000000000000000000000000000815260040161254190613e63565b60405180910390fd5b61255381611436565b15612593576040517f08c379a000000000000000000000000000000000000000000000000000000000815260040161258a90613ecf565b60405180910390fd5b6125a1600083836001611d4a565b6125aa81611436565b156125ea576040517f08c379a00000000000000000000000000000000000000000000000000000000081526004016125e190613ecf565b60405180910390fd5b6001600360008473ffffffffffffffffffffffffffffffffffffffff1673ffffffffffffffffffffffffffffffffffffffff16815260200190815260200160002060008282540192505081905550816002600083815260200190815260200160002060006101000a81548173ffffffffffffffffffffffffffffffffffffffff021916908373ffffffffffffffffffffffffffffffffffffffff160217905550808273ffffffffffffffffffffffffffffffffffffffff16600073ffffffffffffffffffffffffffffffffffffffff167fddf252ad1be2c89b69c2b068fc378daa952ba7f163c4a11628f55a4df523b3ef60405160405180910390a46126f4600083836001611ea8565b5050565b6000604051905090565b600080fd5b600080fd5b60007fffffffff0000000000000000000000000000000000000000000000000000000082169050919050565b6127418161270c565b811461274c57600080fd5b50565b60008135905061275e81612738565b92915050565b60006020828403121561277a57612779612702565b5b60006127888482850161274f565b91505092915050565b60008115159050919050565b6127a681612791565b82525050565b60006020820190506127c1600083018461279d565b92915050565b600081519050919050565b600082825260208201905092915050565b60005b838110156128015780820151818401526020810190506127e6565b83811115612810576000848401525b50505050565b6000601f19601f8301169050919050565b6000612832826127c7565b61283c81856127d2565b935061284c8185602086016127e3565b61285581612816565b840191505092915050565b6000602082019050818103600083015261287a8184612827565b905092915050565b600073ffffffffffffffffffffffffffffffffffffffff82169050919050565b60006128ad82612882565b9050919050565b6128bd816128a2565b81146128c857600080fd5b50565b6000813590506128da816128b4565b92915050565b6000602082840312156128f6576128f5612702565b5b6000612904848285016128cb565b91505092915050565b600081519050919050565b600082825260208201905092915050565b6000819050602082019050919050565b6000819050919050565b61294c81612939565b82525050565b600061295e8383612943565b60208301905092915050565b6000602082019050919050565b60006129828261290d565b61298c8185612918565b935061299783612929565b8060005b838110156129c85781516129af8882612952565b97506129ba8361296a565b92505060018101905061299b565b5085935050505092915050565b600060208201905081810360008301526129ef8184612977565b905092915050565b612a0081612939565b8114612a0b57600080fd5b50565b600081359050612a1d816129f7565b92915050565b600060208284031215612a3957612a38612702565b5b6000612a4784828501612a0e565b91505092915050565b612a59816128a2565b82525050565b6000602082019050612a746000830184612a50565b92915050565b60008060408385031215612a9157612a90612702565b5b6000612a9f858286016128cb565b9250506020612ab085828601612a0e565b9150509250929050565b612ac381612939565b82525050565b6000602082019050612ade6000830184612aba565b92915050565b600081519050919050565b600082825260208201905092915050565b6000819050602082019050919050565b612b1981612791565b82525050565b6000612b2b8383612b10565b60208301905092915050565b6000602082019050919050565b6000612b4f82612ae4565b612b598185612aef565b9350612b6483612b00565b8060005b83811015612b95578151612b7c8882612b1f565b9750612b8783612b37565b925050600181019050612b68565b5085935050505092915050565b60006020820190508181036000830152612bbc8184612b44565b905092915050565b600080600060608486031215612bdd57612bdc612702565b5b6000612beb868287016128cb565b9350506020612bfc868287016128cb565b9250506040612c0d86828701612a0e565b9150509250925092565b600080fd5b600080fd5b600080fd5b60008083601f840112612c3c57612c3b612c17565b5b8235905067ffffffffffffffff811115612c5957612c58612c1c565b5b602083019150836020820283011115612c7557612c74612c21565b5b9250929050565b600080600060408486031215612c9557612c94612702565b5b6000612ca386828701612a0e565b935050602084013567ffffffffffffffff811115612cc457612cc3612707565b5b612cd086828701612c26565b92509250509250925092565b612ce581612791565b8114612cf057600080fd5b50565b600081359050612d0281612cdc565b92915050565b60008060408385031215612d1f57612d1e612702565b5b6000612d2d858286016128cb565b9250506020612d3e85828601612cf3565b9150509250929050565b600080fd5b7f4e487b7100000000000000000000000000000000000000000000000000000000600052604160045260246000fd5b612d8582612816565b810181811067ffffffffffffffff82111715612da457612da3612d4d565b5b80604052505050565b6000612db76126f8565b9050612dc38282612d7c565b919050565b600067ffffffffffffffff821115612de357612de2612d4d565b5b612dec82612816565b9050602081019050919050565b82818337600083830152505050565b6000612e1b612e1684612dc8565b612dad565b905082815260208101848484011115612e3757612e36612d48565b5b612e42848285612df9565b509392505050565b600082601f830112612e5f57612e5e612c17565b5b8135612e6f848260208601612e08565b91505092915050565b60008060008060808587031215612e9257612e91612702565b5b6000612ea0878288016128cb565b9450506020612eb1878288016128cb565b9350506040612ec287828801612a0e565b925050606085013567ffffffffffffffff811115612ee357612ee2612707565b5b612eef87828801612e4a565b91505092959194509250565b60008060408385031215612f1257612f11612702565b5b6000612f20858286016128cb565b9250506020612f31858286016128cb565b9150509250929050565b7f4e487b7100000000000000000000000000000000000000000000000000000000600052602260045260246000fd5b60006002820490506001821680612f8257607f821691505b602082108103612f9557612f94612f3b565b5b50919050565b7f4e487b7100000000000000000000000000000000000000000000000000000000600052603260045260246000fd5b7f4e487b7100000000000000000000000000000000000000000000000000000000600052601160045260246000fd5b600061300482612939565b91507fffffffffffffffffffffffffffffffffffffffffffffffffffffffffffffffff820361303657613035612fca565b5b600182019050919050565b7f4552433732313a20617070726f76616c20746f2063757272656e74206f776e6560008201527f7200000000000000000000000000000000000000000000000000000000000000602082015250565b600061309d6021836127d2565b91506130a882613041565b604082019050919050565b600060208201905081810360008301526130cc81613090565b9050919050565b7f4552433732313a20617070726f76652063616c6c6572206973206e6f7420746f60008201527f6b656e206f776e6572206f7220617070726f76656420666f7220616c6c000000602082015250565b600061312f603d836127d2565b915061313a826130d3565b604082019050919050565b6000602082019050818103600083015261315e81613122565b9050919050565b7f4552433732313a2063616c6c6572206973206e6f7420746f6b656e206f776e6560008201527f72206f7220617070726f76656400000000000000000000000000000000000000602082015250565b60006131c1602d836127d2565b91506131cc82613165565b604082019050919050565b600060208201905081810360008301526131f0816131b4565b9050919050565b600080fd5b600080fd5b600080fd5b60008083356001602003843603038112613223576132226131f7565b5b80840192508235915067ffffffffffffffff821115613245576132446131fc565b5b60208301925060018202360383131561326157613260613201565b5b509250929050565b600061327482612939565b915061327f83612939565b9250827fffffffffffffffffffffffffffffffffffffffffffffffffffffffffffffffff038211156132b4576132b3612fca565b5b828201905092915050565b7f455243373231456e756d657261626c653a206f776e657220696e646578206f7560008201527f74206f6620626f756e6473000000000000000000000000000000000000000000602082015250565b600061331b602b836127d2565b9150613326826132bf565b604082019050919050565b6000602082019050818103600083015261334a8161330e565b9050919050565b7f455243373231456e756d657261626c653a20676c6f62616c20696e646578206f60008201527f7574206f6620626f756e64730000000000000000000000000000000000000000602082015250565b60006133ad602c836127d2565b91506133b882613351565b604082019050919050565b600060208201905081810360008301526133dc816133a0565b9050919050565b7f4552433732313a20696e76616c696420746f6b656e2049440000000000000000600082015250565b60006134196018836127d2565b9150613424826133e3565b602082019050919050565b600060208201905081810360008301526134488161340c565b9050919050565b7f4552433732313a2061646472657373207a65726f206973206e6f74206120766160008201527f6c6964206f776e65720000000000000000000000000000000000000000000000602082015250565b60006134ab6029836127d2565b91506134b68261344f565b604082019050919050565b600060208201905081810360008301526134da8161349e565b9050919050565b7f696e76616c696420746f6b656e49642e206d7573742062652023393939000000600082015250565b6000613517601d836127d2565b9150613522826134e1565b602082019050919050565b600060208201905081810360008301526135468161350a565b9050919050565b7f696e73756666696369656e742066756e64730000000000000000000000000000600082015250565b60006135836012836127d2565b915061358e8261354d565b602082019050919050565b600060208201905081810360008301526135b281613576565b9050919050565b7f4f776e61626c653a206e6577206f776e657220697320746865207a65726f206160008201527f6464726573730000000000000000000000000000000000000000000000000000602082015250565b60006136156026836127d2565b9150613620826135b9565b604082019050919050565b6000602082019050818103600083015261364481613608565b9050919050565b7f4552433732313a207472616e736665722066726f6d20696e636f72726563742060008201527f6f776e6572000000000000000000000000000000000000000000000000000000602082015250565b60006136a76025836127d2565b91506136b28261364b565b604082019050919050565b600060208201905081810360008301526136d68161369a565b9050919050565b7f4552433732313a207472616e7366657220746f20746865207a65726f2061646460008201527f7265737300000000000000000000000000000000000000000000000000000000602082015250565b60006137396024836127d2565b9150613744826136dd565b604082019050919050565b600060208201905081810360008301526137688161372c565b9050919050565b7f4f776e61626c653a2063616c6c6572206973206e6f7420746865206f776e6572600082015250565b60006137a56020836127d2565b91506137b08261376f565b602082019050919050565b600060208201905081810360008301526137d481613798565b9050919050565b600081905092915050565b60008082015250565b60006137fc6001836137db565b9150613807826137e6565b600182019050919050565b600081519050919050565b600081905092915050565b600061383382613812565b61383d818561381d565b935061384d8185602086016127e3565b80840191505092915050565b6000613864826137ef565b91506138708284613828565b915081905092915050565b7f4552433732313a20617070726f766520746f2063616c6c657200000000000000600082015250565b60006138b16019836127d2565b91506138bc8261387b565b602082019050919050565b600060208201905081810360008301526138e0816138a4565b9050919050565b7f4552433732313a207472616e7366657220746f206e6f6e20455243373231526560008201527f63656976657220696d706c656d656e7465720000000000000000000000000000602082015250565b60006139436032836127d2565b915061394e826138e7565b604082019050919050565b6000602082019050818103600083015261397281613936565b9050919050565b600061398482612939565b915061398f83612939565b9250828210156139a2576139a1612fca565b5b828203905092915050565b60008160011c9050919050565b6000808291508390505b6001851115613a04578086048111156139e0576139df612fca565b5b60018516156139ef5780820291505b80810290506139fd856139ad565b94506139c4565b94509492505050565b600082613a1d5760019050613ad9565b81613a2b5760009050613ad9565b8160018114613a415760028114613a4b57613a7a565b6001915050613ad9565b60ff841115613a5d57613a5c612fca565b5b8360020a915084821115613a7457613a73612fca565b5b50613ad9565b5060208310610133831016604e8410600b8410161715613aaf5782820a905083811115613aaa57613aa9612fca565b5b613ad9565b613abc84848460016139ba565b92509050818404811115613ad357613ad2612fca565b5b81810290505b9392505050565b6000613aeb82612939565b9150613af683612939565b9250613b237fffffffffffffffffffffffffffffffffffffffffffffffffffffffffffffffff8484613a0d565b905092915050565b7f455243373231456e756d657261626c653a20636f6e736563757469766520747260008201527f616e7366657273206e6f7420737570706f727465640000000000000000000000602082015250565b6000613b876035836127d2565b9150613b9282613b2b565b604082019050919050565b60006020820190508181036000830152613bb681613b7a565b9050919050565b7f6300000000000000000000000000000000000000000000000000000000000000600082015250565b6000613bf36001836137db565b9150613bfe82613bbd565b600182019050919050565b600063ffffffff82169050919050565b60008160e01b9050919050565b6000613c3182613c19565b9050919050565b613c49613c4482613c09565b613c26565b82525050565b7f80600e6000396000f30000000000000000000000000000000000000000000000600082015250565b6000613c856009836137db565b9150613c9082613c4f565b600982019050919050565b6000613ca682613be6565b9150613cb28285613c38565b600482019150613cc182613c78565b9150613ccd8284613828565b91508190509392505050565b600082825260208201905092915050565b6000613cf582613812565b613cff8185613cd9565b9350613d0f8185602086016127e3565b613d1881612816565b840191505092915050565b6000608082019050613d386000830187612a50565b613d456020830186612a50565b613d526040830185612aba565b8181036060830152613d648184613cea565b905095945050505050565b600081519050613d7e81612738565b92915050565b600060208284031215613d9a57613d99612702565b5b6000613da884828501613d6f565b91505092915050565b6000606082019050613dc66000830186612aba565b613dd36020830185612aba565b613de06040830184612aba565b949350505050565b7f4e487b7100000000000000000000000000000000000000000000000000000000600052603160045260246000fd5b7f4552433732313a206d696e7420746f20746865207a65726f2061646472657373600082015250565b6000613e4d6020836127d2565b9150613e5882613e17565b602082019050919050565b60006020820190508181036000830152613e7c81613e40565b9050919050565b7f4552433732313a20746f6b656e20616c7265616479206d696e74656400000000600082015250565b6000613eb9601c836127d2565b9150613ec482613e83565b602082019050919050565b60006020820190508181036000830152613ee881613eac565b905091905056fea2646970667358221220eee1e37bde30f335a29fbb21d0539d00455524a16ba12e17b7a42e84d2f85b9764736f6c634300080e0033",
  "immutableReferences": {},
  "source": "// SPDX-License-Identifier: MIT\npragma solidity ^0.8.0;\n\nimport \"@openzeppelin/contracts/token/ERC721/extensions/ERC721Enumerable.sol\";\nimport \"@openzeppelin/contracts/access/Ownable.sol\";\nimport \"./lib/sstore2/SSTORE2.sol\";\nimport \"./lib/Memory.sol\";\n\nstruct Token {\n    uint256 bytesLength;\n    address[] addresses;\n}\n\ncontract FlutterBirdSkins is ERC721Enumerable, Ownable {\n    using Strings for uint256;\n\n    uint256 private _maxSupply = 1000;\n    uint256 private _mintPrice = 0.01 ether;\n\n    mapping(uint256 => Token) private tokens;\n\n    constructor() ERC721(\"FlutterBirdSkins\", \"FBS\") {}\n\n    event SkinMinted(uint256 indexed tokenId);\n\n    error TokenDoesNotExist();\n\n    function mintSkin(uint256 newTokenId) public payable {\n        require(newTokenId < _maxSupply, \"invalid tokenId. must be #999\");\n        require(msg.value >= _mintPrice, \"insufficient funds\");\n\n        _safeMint(msg.sender, newTokenId);\n\n        emit SkinMinted(newTokenId);\n    }\n\n    /**\n     * @notice returns a list of tokenIds that are owned by the given address\n   */\n    function getTokensForOwner(address _owner) public view returns (uint[] memory) {\n        uint[] memory _tokensOfOwner = new uint[](ERC721.balanceOf(_owner));\n        uint i;\n\n        for (i = 0; i < ERC721.balanceOf(_owner); i++) {\n            _tokensOfOwner[i] = ERC721Enumerable.tokenOfOwnerByIndex(_owner, i);\n        }\n        return (_tokensOfOwner);\n    }\n\n    /**\n     * @notice returns a list of boolean values indicating whether the skin with that index has been minted already.\n   */\n    function getMintedTokenList() public view returns (bool[] memory) {\n        bool[] memory _unmintedTokes = new bool[](_maxSupply);\n        uint i;\n\n        for (i = 0; i < _maxSupply; i++) {\n            if (_exists(i)) {\n                _unmintedTokes[i] = true;\n            }\n        }\n        return _unmintedTokes;\n    }\n\n    function appendUri(uint256 tokenId, bytes[] calldata values) public onlyOwner {\n        for (uint256 i = 0; i < values.length; i++) {\n            tokens[tokenId].addresses.push(SSTORE2.write(values[i]));\n            tokens[tokenId].bytesLength += values[i].length;\n        }\n    }\n\n    function tokenURI(uint256 tokenId) public view override returns (string memory) {\n        if (!_exists(tokenId)) revert TokenDoesNotExist();\n        bytes memory uri = new bytes(tokens[tokenId].bytesLength);\n        (uint256 uriAddr, ) = Memory.fromBytes(uri);\n        for (uint256 i = 0; i < tokens[tokenId].addresses.length; i++) {\n            bytes memory data = SSTORE2.read(tokens[tokenId].addresses[i]);\n            (uint256 dataAddr, uint256 dataLen) = Memory.fromBytes(data);\n            Memory.copy(dataAddr, uriAddr, dataLen);\n            uriAddr += dataLen;\n        }\n        return string(uri);\n    }\n\n    // function setTokenUri(uint256 tokenId, string memory _tokenURI) public {\n    //     require(\n    //         _isApprovedOrOwner(_msgSender(), tokenId),\n    //         \"ERC721: transfer caller is not owner nor approved\"\n    //     );\n    //     _setTokenURI(tokenId, _tokenURI);\n    // }\n\n    // function _setTokenURI(uint256 tokenId, string memory _tokenURI) internal virtual {\n    //     require(_exists(tokenId), \"ERC721URIStorage: URI set of nonexistent token\");\n    //     _tokenURIs[tokenId] = _tokenURI;\n    // }\n}\n",
  "sourcePath": "/app/flutter_bird_skins/contracts/FlutterBirdSkins.sol",
  "compiler": {
    "name": "solc",
    "version": "0.8.14+commit.80d49f37.Emscripten.clang"
  },
  "schemaVersion": "3.4.16",
  "updatedAt": "2024-07-19T02:04:43.792Z",
  "networkType": "ethereum",
  "devdoc": {
    "kind": "dev",
    "methods": {
      "approve(address,uint256)": {
        "details": "See {IERC721-approve}."
      },
      "balanceOf(address)": {
        "details": "See {IERC721-balanceOf}."
      },
      "getApproved(uint256)": {
        "details": "See {IERC721-getApproved}."
      },
      "isApprovedForAll(address,address)": {
        "details": "See {IERC721-isApprovedForAll}."
      },
      "name()": {
        "details": "See {IERC721Metadata-name}."
      },
      "owner()": {
        "details": "Returns the address of the current owner."
      },
      "ownerOf(uint256)": {
        "details": "See {IERC721-ownerOf}."
      },
      "renounceOwnership()": {
        "details": "Leaves the contract without owner. It will not be possible to call `onlyOwner` functions. Can only be called by the current owner. NOTE: Renouncing ownership will leave the contract without an owner, thereby disabling any functionality that is only available to the owner."
      },
      "safeTransferFrom(address,address,uint256)": {
        "details": "See {IERC721-safeTransferFrom}."
      },
      "safeTransferFrom(address,address,uint256,bytes)": {
        "details": "See {IERC721-safeTransferFrom}."
      },
      "setApprovalForAll(address,bool)": {
        "details": "See {IERC721-setApprovalForAll}."
      },
      "supportsInterface(bytes4)": {
        "details": "See {IERC165-supportsInterface}."
      },
      "symbol()": {
        "details": "See {IERC721Metadata-symbol}."
      },
      "tokenByIndex(uint256)": {
        "details": "See {IERC721Enumerable-tokenByIndex}."
      },
      "tokenOfOwnerByIndex(address,uint256)": {
        "details": "See {IERC721Enumerable-tokenOfOwnerByIndex}."
      },
      "tokenURI(uint256)": {
        "details": "See {IERC721Metadata-tokenURI}."
      },
      "totalSupply()": {
        "details": "See {IERC721Enumerable-totalSupply}."
      },
      "transferFrom(address,address,uint256)": {
        "details": "See {IERC721-transferFrom}."
      },
      "transferOwnership(address)": {
        "details": "Transfers ownership of the contract to a new account (`newOwner`). Can only be called by the current owner."
      }
    },
    "version": 1
  },
  "userdoc": {
    "kind": "user",
    "methods": {
      "getMintedTokenList()": {
        "notice": "returns a list of boolean values indicating whether the skin with that index has been minted already."
      },
      "getTokensForOwner(address)": {
        "notice": "returns a list of tokenIds that are owned by the given address"
      }
    },
    "version": 1
  }
}